:020000040800F2
:10000000001000201D090008F9080008FB0800087E
:1000100000000000000000000000000000000000E0
:10002000000000000000000000000000FD080008C3
:100030000000000000000000FF080008010900089F
:100040006D090008000000006D0900086D09000836
:100050006D0900086D0900086D0900086D090008A8
:10006000000000006D0900086D0900086D09000816
:100070006D0900086D0900086D0900080000000006
:100080006D09000800000000000000006D09000874
:10009000000000006D0900086D0900086D090008E6
:1000A000000000006D0900080000000009090008B8
:1000B0000000000000000000000000000000000040
:1000C0000448054B10B5834203D0044B002B00D0ED
:1000D000984710BD400400204004002000000000AC
:1000E00006480749091A8B10C90FC91810B54910DD
:1000F00003D0044B002B00D0984710BD40040020D3
:10010000400400200000000010B5074C2378002BAD
:1001100009D1FFF7D5FF054B002B02D0044800E0C2
:1001200000BF0123237010BD400400200000000028
:100130002C200008054B10B5002B03D004490548BE
:1001400000E000BFFFF7CCFF10BDC046000000007C
:10015000440400202C200008002243088B4274D362
:1001600003098B425FD3030A8B4244D3030B8B42B8
:1001700028D3030C8B420DD3FF22090212BA030CC1
:100180008B4202D31212090265D0030B8B4219D3A2
:1001900000E0090AC30B8B4201D3CB03C01A5241C2
:1001A000830B8B4201D38B03C01A5241430B8B420A
:1001B00001D34B03C01A5241030B8B4201D30B03F3
:1001C000C01A5241C30A8B4201D3CB02C01A52411A
:1001D000830A8B4201D38B02C01A5241430A8B42DD
:1001E00001D34B02C01A5241030A8B4201D30B02C6
:1001F000C01A5241CDD2C3098B4201D3CB01C01AE0
:10020000524183098B4201D38B01C01A52414309E9
:100210008B4201D34B01C01A524103098B4201D3D7
:100220000B01C01A5241C3088B4201D3CB00C01A44
:10023000524183088B4201D38B00C01A52414308BC
:100240008B4201D34B00C01A5241411A00D20146E1
:10025000524110467047FFE701B5002000F006F854
:1002600002BDC0460029F7D076E770477047C04608
:1002700010B5010000230022002000F0DDF810BDC1
:1002800070B5074D074C641BA41005D0013CA300BA
:10029000EB589847002CF9D101F0CEFE70BDC04656
:1002A000902000089420000870B50C4D0C4E761B71
:1002B000B61005D0002408CD01349847A642FAD1E3
:1002C00001F0B4FE074D084E761BB61005D0002491
:1002D00008CD01349847A642FAD170BD88200008A5
:1002E000882000088820000890200008F0B5C64645
:1002F00000B50F2A41D903270D003E0005430C002D
:1003000003002E402F423DD11500103D2D09AC4673
:100310002D01A8468044256867681D605F60A56858
:10032000E7689D60DF6010341F0010334745F2D14D
:1003300065460F230C2401352D0149191340451939
:10034000144222D08C59AC5104369C1B032CF9D892
:100350000324043B9B0801339B002240ED18C9187D
:10036000561E002A06D00023CC5C1A00EC54013340
:100370009642F9D104BC9046F0BD0500561E002AF5
:10038000F1D1F7E70500561EEDE71A00F6E7C04683
:10039000F0B5050083074AD0541E002A44D003005C
:1003A0000322CEB202E00135013C3DD301332E7071
:1003B0001342F8D1032C2FD9FF220A40150215430E
:1003C0002A0415430F2C35D92700103F3F093E0161
:1003D000B4461E001A0010366644156055609560DC
:1003E000D5601032B242F8D10F260C2201373F01FE
:1003F0002640DB193700224217D03E1FB608B40052
:10040000A4461A001C1D644420C2A242FCD103244D
:100410000136B6009B193C40002C05D0C9B21C190E
:10042000197001339C42FBD1F0BD3400F4E7140095
:100430000300BFE72700E0E7F0B5C64600B51F4C54
:1004400082B024680194A424019D64002D59002DDC
:100450002BD06C681F2C2EDC002809D10020631CD7
:100460000234A4006B60615102B004BC9046F0BD40
:100470008827A600AE19F2510137FF37BC4601228A
:10048000AC446746A2403F689046174362461760F7
:1004900084277F00F3510228E0D12B0040468D33A2
:1004A000FF331A6810431860D8E7019D019E4D354F
:1004B000FF353551CDE701204042D5E74420000803
:1004C00030B54B1EC55C002300224C1E9C4203DD50
:1004D000C45C62400133F8E7AA4201D0002030BD7D
:1004E0000120FCE710B5002300224C1E9C4203DDD6
:1004F000C45C62400133F8E7025510BDF0B585B029
:1005000007000D00160005212800FFF7D9FF041E83
:100510000CD0052229006846FFF7E8FE6B469A7862
:100520003B789A4205D0002E03D13400200005B05C
:10053000F0BD02ABAA221A70002E14D0022302AD25
:100540006B703B78AB706B46DE78EE70052128004F
:10055000FFF7C8FF3E70FA239B00052229000348DD
:1005600001F0BEFBE2E70123E9E7C0467404002086
:1005700010B51F4B834200D010BD00F03DFA1D4B5B
:1005800018601D490B681D4A12781D48C25401337A
:100590000B60012B09D0022B0DD01A4A127893421E
:1005A00020D1194B01221A70E6E7AA2AF3D0174B83
:1005B00001221A70E0E7022A05D9032A05D1114B5E
:1005C00005221A7008E0002A03D1104B01221A708C
:1005D000D2E70C4B05221A7001220849044801F0A9
:1005E00097FCC9E701220549014801F091FCC3E7E6
:1005F00074040020700400206404002068040020BB
:100600005C040020300400206F0400206E040020F1
:1006100010B50023074A1360074A05211170074AE5
:100620001370074A137001220649074801F070FC55
:1006300010BDC04664040020300400206E04002079
:100640006F040020680400207404002010B5FFF738
:10065000DFFF10BD00B583B0AA236A461370A63B26
:100660005370084B1B789370D07005216846FFF7D4
:1006700039FFFA239B0005226946034801F030FB4D
:1006800003B000BD6C0400207404002010B5164BAC
:100690005B78022B11D0032B1AD0012B02D0FFF76D
:1006A000B7FF10BD002210491048FFF727FF0028B0
:1006B000F5D10130FFF7CEFFF1E701220A490B48DF
:1006C000FFF71CFF0028EAD10130FFF7C3FFE6E780
:1006D000002205490548FFF711FF0028DFD101304E
:1006E000FFF7B8FFDBE7C0465C0400206C04002085
:1006F00010B5114B1B78002B0ED1104B1B78002B23
:100700000DD172B600F078F90D4B1B68C01A0D4B75
:10071000984207D862B610BDFFF7B8FFEDE7FFF7C4
:1007200077FFEEE7084800F0C7FE00F065F9044BDC
:100730001860FFF76DFFEDE76F0400206E040020E6
:1007400070040020B70B00007404002082B00A4B34
:1007500059698020C003014359615A6902400092DF
:10076000009A5A69802189020A435A615B690B40E9
:100770000193019B02B070470010024072B6FEE781
:1007800010B50C480C4B036096239B01436000237B
:100790008360C36003610C2242618361C3610362B1
:1007A00043620022002101F0EDFB002800D110BDC2
:1007B000FFF7E4FF740400200038014000B595B055
:1007C0002C22002109A8FFF7E3FD1022002104A834
:1007D000FFF7DEFD102200216846FFF7D9FD022356
:1007E0000893013B0B930F330C9308A800F072FAA7
:1007F000002816D10723049300230593069307933B
:10080000002104A800F0ECFC00280CD10123009387
:1008100000230293684600F093FD002805D115B02F
:1008200000BDFFF7ABFFFFF7A9FFFFF7A7FF10B56C
:1008300000F0C6F8FFF7C2FFFFF788FFFFF7A0FF41
:10084000FFF704FFFFF754FFFCE7000082B00A4BFC
:10085000996901221143996199690A400092009AAD
:10086000DA69802149050A43DA61DB690B400193AB
:10087000019B02B07047C0460010024010B588B01E
:1008800004001422002103A8FFF782FD2268184B00
:100890009A4201D008B010BD164B99698020C00162
:1008A000014399619A6902400192019A5A69802133
:1008B00089020A435A615B690B400293029B0E2333
:1008C00003930C3B04930023059303330693023BED
:1008D0000793902003A9C00500F036F900220021FB
:1008E0001B2000F08FF81B2000F0BCF8D2E7C046B8
:1008F0000038014000100240FEE7FEE770477047F5
:1009000010B500F06DF810BD10B5024800F054FEAF
:1009100010BDC04674040020704700000D48854695
:100920000D480E490E4A002302E0D458C450043347
:10093000C4188C42F9D30B4A0B4C002301E013601E
:100940000432A242FBD3FFF7E7FFFFF7ADFCFFF74E
:100950006EFFFEE700100020000000204004002091
:100960009420000840040020FC040020FEE7000062
:1009700010B504000F4B1978FA208000FFF7ECFB4C
:1009800001000D4B1868FFF7E7FB00F077F800282F
:100990000DD1032C01D901200AE0013000222100F1
:1009A000404200F02FF8054B1C60002000E00120C1
:1009B00010BDC04638040020340400203C04002050
:1009C00010B5064A136810210B4313600320FFF78C
:1009D000CFFFFFF73BFF002010BDC04600200240C4
:1009E000034A1168034B1B785B1813607047C046BD
:1009F000F804002038040020014B18687047C046F6
:100A0000F804002070B5002811DB8308134EC033B2
:100A10009B009D5903242040C000FF221400844005
:100A2000A54389010A4082402A439A5170BD0F2391
:100A30000340083B9B0806339B00094A94466344E5
:100A40005C6803221040C000FC3215008540AC43B6
:100A500089010A40824022435A60E7E700E100E052
:100A600000ED00E0002805DB1F2318401E3B8340FB
:100A7000014A13607047C04600E100E0013880235E
:100A80005B0498420FD2094A50600948036A1B026E
:100A90001B0AC02109060B4303620023936007333E
:100AA0001360002070470120FCE7C04610E000E022
:100AB00000ED00E010B52123C35C022B06D0042317
:100AC00083631C330022C254012010BD02681368E6
:100AD0000E218B43136001680A6801239A430A6060
:100AE000C26B1900046CA1405160212283541F3352
:100AF0000022C2540020E8E710B52123C35C022B7A
:100B000003D004238363012010BD026813680E2103
:100B10008B43136001680A6801239A430A60C26B21
:100B20001900046CA1405160212283541F3300221C
:100B3000C254436B002B02D098470020E4E700200A
:100B4000E2E7806B70470000F0B583B0002357E008
:100B500084685F000326BE40B4432600CC68BC40D6
:100B600034438460446894434A6816090122324041
:100B70009A402243426053E0DC080834A40026581F
:100B800005321A4092000F279740BE430F699740E5
:100B90003A003243225057E0032600E00026A640E8
:100BA00034003C4302329200444E9451444A14684B
:100BB000EA432600AE434F68FF0301D52C432600CD
:100BC0003F4C26606468260016404F68BF0301D57D
:100BD0002C4326003A4C6660A468260016404F68F5
:100BE000FF0201D52C432600354CA660E468224064
:100BF0004E68B60201D52A002243314CE26001332F
:100C00000C682200DA4057D001229A402500154096
:100C10001442F4D003244E683440013C012C97D98F
:100C200003224C682240032A09D0C2685E000324D4
:100C3000B440A24314008A68B2402243C260032237
:100C40004C682240022A97D004685E0003221700F5
:100C5000B740BC434F683A40B24022430260C022D2
:100C600092024C681442CAD0164CA669012216435F
:100C7000A661A46922400192019A9A08941CA400DA
:100C80000E4EA75903241C40A4000F26A640B743CC
:100C90009026F605B04281D00B4EB04208D00B4EE4
:100CA000B04207D00A4EB04200D175E7052676E77C
:100CB000012674E7022672E703B0F0BD0000014090
:100CC00000040140001002400004004800080048F1
:100CD000000C004870B582B0041E00D12EE20368FB
:100CE000DB0726D5AE4B5A680C231340042B18D0D3
:100CF000AB4B5A680C231340082B0ED06368012BB2
:100D00003CD0002B51D1A64B1A68A6490A401A6064
:100D10001A68A5490A401A6036E0A14B5B68DB03FC
:100D2000ECD59F4B1B689B0303D56368002B00D158
:100D300007E223689B0772D5994B5B680C221A4225
:100D40005DD0974B5A680C231340082B53D0E368AF
:100D5000002B00D185E0924A136801210B431360F8
:100D6000FFF74AFE05008E4B1B689B0770D4FFF708
:100D700043FE401B0228F6D90320E0E1884A1168AF
:100D800080235B020B4313606368002B25D0FFF7C1
:100D900033FE0500824B1B689B03CAD4FFF72CFE71
:100DA000401B6428F6D90320C9E1052B09D07C4BF0
:100DB0001A687C490A401A601A687B490A401A601E
:100DC000E2E7774B19688022D2020A431A60196859
:100DD000802252020A431A60D6E7FFF70DFE050093
:100DE0006F4B1B689B03A4D5FFF706FE401B6428CE
:100DF000F6D90320A3E16A4B5B68DB03A7D4684BF9
:100E00001B689B0703D5E368012B00D09BE1644975
:100E10000B68F82293432269D20013430B602368C6
:100E20001B0744D5E369002B2ED05D4A536A01218C
:100E30000B435362FFF7E0FD0500594B5B6A9B07CC
:100E400035D4FFF7D9FD401B0228F6D9032076E1FF
:100E500053490B68F82293432269D20013430B6075
:100E6000DDE74F4A136801218B431360FFF7C4FD90
:100E700005004B4B1B689B07D1D5FFF7BDFD401B01
:100E80000228F6D903205AE1454A536A01218B43CF
:100E90005362FFF7B1FD0500414B5B6A9B0706D526
:100EA000FFF7AAFD401B0228F6D9032047E123687B
:100EB0005B0700D480E03A4BDB69DB000BD4384A97
:100EC000D169802040050143D161D369034001937A
:100ED000019B012500E00025344B1B68DB050ED586
:100EE000A368012B1FD0002B34D12D4B1A6A01218E
:100EF0008A431A621A6A03318A431A6218E02B4A3B
:100F0000116880235B000B431360FFF775FD06003B
:100F1000264B1B68DB05E3D4FFF76EFD801B6428BE
:100F2000F6D903200BE11E4A136A01210B43136219
:100F3000A368002B24D0FFF75FFD0600184B1B6A47
:100F40009B0737D4FFF758FD801B194B9842F5D902
:100F50000320F4E0052B09D0114B1A6A01218A43C2
:100F60001A621A6A03318A431A62E1E70C4B1A6A61
:100F700004210A431A621A6A03390A431A62D7E73C
:100F8000FFF73AFD0600064B1B6A9B0712D5FFF7D9
:100F900033FD801B064B9842F5D90320CFE0C046B5
:100FA00000100240FFFFFEFFFFFFFBFF007000404C
:100FB00088130000012D33D02368DB0610D5636948
:100FC000012B33D0053351D1654A536B04218B4338
:100FD0005363536BF4318B43A169C9000B435363D3
:100FE000236A002B00D1B0E05D4A51680C220A4010
:100FF000082A00D18AE0022B4FD0594A1368594978
:101000000B401360FFF7F8FC0400554B1B689B0175
:101010007AD5FFF7F1FC001B0228F6D903208EE0F9
:101020004F4AD36950490B40D361C5E74C4B5A6BCB
:1010300004210A435A635A6B03390A435A63FFF780
:10104000DBFC0500464B5B6B9B0706D4FFF7D4FC2B
:10105000401B0228F6D9032071E041494B6BF8226E
:101060009343A269D20013434B63B9E73C4B5A6BDD
:1010700004210A435A635A6B03398A435A63FFF7C0
:10108000BBFC0500364B5B6B9B07A9D5FFF7B4FC97
:10109000401B0228F6D9032051E0314A1368314938
:1010A0000B401360FFF7A8FC05002D4B1B689B014C
:1010B00006D5FFF7A1FC401B0228F6D903203EE02D
:1010C000274BDA6A0F218A43E16A0A43DA625A68D7
:1010D00026490A40A16A606A01430A435A601968B6
:1010E000802252040A431A60FFF786FC04001C4B5E
:1010F0001B689B0106D4FFF77FFC001B0228F6D972
:1011000003201CE000201AE0002018E0012B1ED074
:10111000134B5A68D96A80235B021340606A83428A
:1011200017D10F230B40E16A8B4214D1F0239B03AC
:101130001A40A36A9A4210D1002000E0012002B0B8
:1011400070BD0120FBE70120F9E70020F7E701204F
:10115000F5E70120F3E70120F1E70120EFE7C046C2
:1011600000100240FFFFFFFEFFFFFFEFFFFFC2FF87
:1011700010B588B004AA164B13CB13C21B681360BA
:101180006A46144B13CB13C21B681360124B5A6888
:101190000C231340082B02D0104808B010BD910C4E
:1011A0000733194004A8445C0B49C96A0B406946DF
:1011B000C95CD30304D50948FEF7CEFF6043ECE7D2
:1011C00063011B1B9801C01AC00000190002E4E76C
:1011D00060200008742000080010024000127A000D
:1011E00070B504000D00002800D17EE0434B1A6862
:1011F000012313408B420AD240490B6801229343DA
:101200002B430B600B681A40AA4200D06FE02368A2
:101210009A070ED55B0705D5394A5168E023DB00F4
:101220000B435360364A5368F0218B43A1680B434C
:1012300053602368DB072DD56368012B1ED0022B7A
:1012400022D02F4A1268920753D52D494A680320AD
:10125000824313434B60FFF7CFFB0600284B5B68CC
:101260000C221A4063689B009A4213D0FFF7C4FB1C
:10127000801B244B9842F1D9032035E0204A1268A4
:101280009203E2D401202FE01D4A12689201DCD4BF
:10129000012029E0194B1A6801231340AB4209D9F8
:1012A00016490B68012293432B430B600B681A40CD
:1012B000AA4220D123685B0706D5114A5368124918
:1012C0000B40E1680B435360FFF752FF0C4B5A6829
:1012D00012090F2313400D4AD35CD8400C4B186001
:1012E0000320FFF745FB002070BD0120FCE7012033
:1012F000FAE70120F8E70120F6E7C04600200240A7
:101300000010024088130000FFF8FFFF482000088B
:1013100034040020014B18687047C0463404002094
:1013200010B5FFF7F7FF044B5A68120A0723134062
:10133000024AD35CD84010BD00100240582000087B
:1013400070B582B004000368DB0337D53D4BDB6921
:10135000DB0049D43B4AD169802040050143D1617B
:10136000D36903400193019B0125374B1B68DB05C3
:101370003CD5344B1A6AC0239B00110019401A4215
:1013800013D0626813408B420FD02E4B186A2F4A3D
:1013900002401E6A8021490231431962196A2C4EAB
:1013A000314019621A62C30734D4264A136A2749A6
:1013B0000B4061680B431362012D3AD02368DB07B1
:1013C00006D5204A136B03218B43A1680B4313639B
:1013D00023689B0632D51B4A136B10218B43E168AF
:1013E0000B43136300202AE00025BEE7164A11686C
:1013F00080235B000B431360FFF7FEFA0600124BDD
:101400001B68DB05B5D4FFF7F7FA801B6428F6D913
:10141000032014E0FFF7F0FA06000A4B1B6A9B0753
:10142000C3D4FFF7E9FA801B0A4B9842F5D9032091
:1014300005E0D36908490B40D361BFE7002002B043
:1014400070BDC0460010024000700040FFFCFFFF6E
:10145000FFFFFEFF88130000FFFFFFEF30B5EFF343
:101460001084012282F3108801680B68114D2B4013
:101470000B6084F31088EFF3108482F31088016806
:101480008B6893438B6084F31088036E012B05D027
:101490002023C36700230366436630BDEFF310814A
:1014A00083F31088026813681024A343136081F348
:1014B0001088EDE7DFFEFFFF70B50400EFF310804A
:1014C000012282F3108821680B68294D2B400B60A4
:1014D00080F31088EFF3108082F3108821688B6806
:1014E00093438B6080F31088236E012B29D02368EF
:1014F0009B685B0615D5EFF31081012383F31088F9
:101500002268936840208343936081F31088236F9F
:10151000002B06D000225A63206FFFF7CBFA002879
:101520001BD100225A23E25223680F21196221683D
:101530008B69082003438B612023E3672266002028
:1015400070BDEFF3108183F31088226813681020B8
:101550008343136081F31088C9E7206FFFF7F1FA26
:101560002028DED180231022E2501D38E8E7C04653
:10157000DFFEFFFF704710B5EFF31081012383F307
:101580001088026813684024A343136081F3108815
:101590002023836700238366FFF7ECFF10BD7047AD
:1015A00010B5406A00235A228352083A8352FFF74B
:1015B000F6FF10BD7047000070B504000268D369E3
:1015C00010689668A4491D000D400B4203D199068E
:1015D00001D5810618D4002D07D001210D0035401A
:1015E000314217D19D49084214D1216E012900D101
:1015F00093E01A0602D5020600D522E15B0602D569
:10160000430600D524E170BD636E002BFBD02000A3
:101610009847F8E7D90707D5C10505D50126166211
:1016200080216258324362509A0709D5002D07D0B5
:101630002268022111627E316258042632436250D0
:101640005A0709D5002D07D02268042111627C3188
:1016500062580226324362501A070AD5820601D424
:10166000002D06D0226808251562802162582A4381
:1016700062501A050AD5420108D522688021090165
:1016800011628021625820252A4362508022A2588C
:10169000002AB8D09B0606D5830604D5636E002BBE
:1016A00001D0200098478023E25823689B685B069E
:1016B00002D42823134229D02000FFF7CFFE23684D
:1016C0009B685B061ED5EFF31081012383F310881E
:1016D0002268936840208343936081F31088236FCE
:1016E000002B0BD05E4A5A63206FFFF705FA0028E3
:1016F00000D188E7206F436B984784E72000FFF70D
:101700004EFF80E72000FFF74AFF7CE72000FFF74D
:1017100046FF80230022E25075E7D90600D468E72F
:10172000C10600D465E71023136223689B685B063B
:101730004FD5226F13685B689BB2002B00D162E724
:101740005821615A994200D85DE75A216352936942
:10175000202B09D15823E15A0233E35AC91A89B21E
:101760002000FFF727FF4EE7EFF31080012383F3FC
:10177000108821680A683B4D2A400A6080F310886F
:10178000EFF3108083F3108821688A689A438A6097
:1017900080F31088EFF3108083F3108821688A6843
:1017A0004235FF35AA438A6080F310882022E26721
:1017B00000222266EFF3108183F3108822681368F9
:1017C00010208343136081F31088206FFFF772F9B4
:1017D000C0E75823E15A0233E25A891A89B2E35A20
:1017E0009BB2002B00D10EE7002900D10BE7EFF3ED
:1017F0001085012383F31088206802681A4E324056
:10180000026085F31088EFF3108583F31088206859
:1018100082689A43826085F310882022E267002262
:1018200022666266EFF3108083F3108822681368E3
:101830001025AB43136080F310882000FFF7BAFE39
:10184000E1E6A36E002B00D1DDE620009847DAE642
:101850002000FFF790FED6E60F08000020010004EC
:10186000A1150008FFFEFFFFDFFEFFFF70B55C2340
:10187000C35AC26F222A05D00268936908210B431C
:10188000936170BD0268928CDBB21340426D13709D
:10189000436D013343655A22835A013B9BB2835205
:1018A000835A9BB2002BECD1EFF31084593A82F3A8
:1018B000108801680B68184D2B400B6084F310886A
:1018C000EFF3108482F3108801688B6893438B6078
:1018D00084F310882023C36700234366036E012B23
:1018E00017D100230366EFF31084013383F31088CC
:1018F00001680B680F3293430B6084F31088036810
:10190000D9690A4200D01A625823C15AFFF752FE21
:10191000B7E7FEF72DFEB4E7DFFEFFFF70B55C23EF
:10192000C25AC36F222B05D00268936908210B436A
:10193000936170BD03689B8C1340426D1380436DAF
:10194000023343655A22835A013B9BB28352835A26
:101950009BB2002BEDD1EFF31084593A82F310883B
:1019600001680B68184D2B400B6084F31088EFF36F
:10197000108482F3108801688B6893438B6084F332
:1019800010882023C36700234366036E012B17D101
:1019900000230366EFF31084013383F3108801689A
:1019A0000B680F3293430B6084F310880368D96986
:1019B0000A4200D01A625823C15AFFF7FBFDB8E76C
:1019C000FEF7D6FDB5E7C046DFFEFFFF10B5040009
:1019D00083680269134342691343C2691343016870
:1019E0000A684A48024013430B602268536848491A
:1019F0000B40E1680B435360226AA3691A432168D4
:101A00008B684448034013438B60434B1A6B03239A
:101A10001340022B27D022D8002B26D0012B26D111
:101A20000333E06980221202904224D0042B65D057
:101A300054D8002B5CD0022B4ED1384863685B0829
:101A400018186168FEF788FB0004000C0200103AC9
:101A5000334B9A4257D82368D860002044E0032BC8
:101A600007D1013BDDE70823DBE70023D9E710239B
:101A7000D7E71023D5E7042B2BD020D8002B22D07A
:101A8000022B1AD12548400063685B08C0186168C2
:101A9000FEF762FB83B20004000C01001039204AFB
:101AA00091422ED80F2293431A0040080723184072
:101AB00010432368D860002016E0012014E0082BB2
:101AC000E1D0012010E0FFF72BFC0028DBD1002043
:101AD0000AE0FFF74DFBF8E7012005E0082B02D1F3
:101AE00080200002AAE7012000236366A36610BDE0
:101AF000FFF716FC0028A1D10020F5E7FFF738FB1F
:101B0000F8E70120F0E70120EEE7C046F369FFFFA8
:101B1000FFCFFFFFFFF4FFFF0010024000127A002A
:101B2000EFFF0000436ADB0706D5026853682C49C3
:101B30000B40816A0B435360436A9B0706D50268DA
:101B4000536828490B40C16A0B435360436A5B07E3
:101B500006D50268536824490B40016B0B43536060
:101B6000436A1B0706D50268536820490B40416B46
:101B70000B435360436ADB0606D5026893681C4931
:101B80000B40816B0B439360436A9B0606D502684A
:101B9000936818490B40C16B0B439360436A5B0623
:101BA0000BD50268536814490B40016C0B4353601A
:101BB00080235B03026C9A420AD0436A1B0606D557
:101BC000026853680D490B40816C0B4353607047AA
:101BD000026853680A490B40416C0B435360ECE7C1
:101BE000FFFFFDFFFFFFFEFFFFFFFBFFFF7FFFFF8C
:101BF000FFEFFFFFFFDFFFFFFFFFEFFFFFFFF7FF3D
:101C0000FFFF9FFFF8B5CE46474680B506000D00A2
:101C100017009946089B98463368DC692C40641B82
:101C200063425C41BC4253D143460133F4D0FEF7DA
:101C3000E3FE4B46C01A40452CD84346002B29D022
:101C400033681A685207E7D5DA691205E4D58022AD
:101C500012011A62EFF31080012282F310883168BA
:101C60000B681E4C23400B6080F31088EFF310804C
:101C700082F3108831688B6893438B6080F31088FF
:101C80002023B367F3677F32B35054330022F254FA
:101C900003201EE0EFF31080012282F310883168E8
:101CA0000B680E4C23400B6080F31088EFF310801C
:101CB00082F3108831688B6893438B6080F31088BF
:101CC0002023B367F36754330022F254032000E06B
:101CD00000200CBC90469946F8BDC0465FFEFFFF51
:101CE000F0B5C64600B582B004000D0090461E0057
:101CF000836F202B66D1002969D0002A69D0802308
:101D00005B0182689A421ED07423E35C012B62D08F
:101D100074230122E2540C330022E2505F3BA3679C
:101D2000FEF76AFE070050234246E2520233E252B7
:101D300080235B01A2689A420CD00023984674234A
:101D40000022E2541DE00369002BDDD1CB07DBD577
:101D5000012038E02369002B02D000239846EEE7EB
:101D6000A8460025EBE743461B88DB05DB0D226810
:101D7000138502239C46E0445223E25A013A92B270
:101D8000E2525223E35A9BB2002B0FD000963B0045
:101D9000002280212000FFF735FF00281DD1002DF3
:101DA000E1D02B78226813850135E5E700963B00EA
:101DB000002240212000FFF725FF00280FD120231B
:101DC000A36700E0022002B004BC9046F0BD0120F1
:101DD000F9E70120F7E70220F5E70320F3E7032006
:101DE000F1E7000030B583B0040080230022C25028
:101DF000FEF702FE050023681B681B070DD423684D
:101E00001B685B0716D42023A367E36700232366C0
:101E10007422A354002003B030BD80210C4B0093EA
:101E20000300002289032000FFF7ECFE0028E6D023
:101E30000320F0E78021064B00932B000022C9030A
:101E40002000FFF7DFFE0028DDD00320E3E7C046D7
:101E5000FFFFFF0110B541655823C2520233C25241
:101E600000234366836880225201934208D0002BEE
:101E700015D10369002B0ED15C33FF22C25211E051
:101E80000369002B03D15C331E4AC2520AE05C2373
:101E9000FF22C25206E05C237F22C25202E05C2392
:101EA0000022C25280230022C2505E3BC367EFF380
:101EB0001084012181F31088026893680B439360BA
:101EC00084F3108880235B0182689A4213D00E4B02
:101ED000436674230022C254EFF31081733B83F3F3
:101EE0001088026810682033FF330343136081F3C6
:101EF0001088002010BD0369002BE8D1034B436616
:101F0000E7E7C046FF0100006D1800081D19000832
:101F100070B5C36F202B2CD100292CD0002A2CD0D7
:101F200080235B0184689C421CD07423C35C012B1A
:101F300025D074230124C4540023036603685B681E
:101F40001B020CD5EFF31085012383F3108804687E
:101F500026688023DB043343236085F31088FFF772
:101F600079FF07E00369002BDFD1CB07DDD5012026
:101F700000E0022070BD0120FCE70120FAE702200A
:101F8000F8E70000F8B504000F0016001D00002857
:101F900039D0836F002B2CD02423A36722681368C9
:101FA00001218B4313602000FFF710FD01281FD093
:101FB000636A002B23D1226891688023DB010B43E5
:101FC000936023689968114A11400F439F6076051A
:101FD0002D042E4323681D680D4A15402E431E60B4
:101FE0002268136801210B4313602000FFF7FAFEFB
:101FF000F8BD74330022C254FEF740FCCCE7200049
:10200000FFF790FDD7E70120F2E7C046FF7FFFFF13
:10201000FFFF00FC034B10B5002B02D00248FEF777
:1020200027F910BD0000000081020008F8B5C04685
:10203000F8BC08BC9E467047F8B5C046F8BC08BC62
:042040009E46704701
:10204400080000200000000000000000010203045A
:102054000607080900000000010203040203040546
:10206400060708090A0B0C0D0E0F101000000000E3
:102074000102030405060708090A0B0C0D0E0F10D4
:042084000000000058
:082088001520000835010008D5
:04209000090100083A
:10209400080000200000000000000000F4020020FE
:1020A4005C030020C40300200000000000000000C6
:1020B400000000000000000000000000000000001C
:1020C400000000000000000000000000000000000C
:1020D40000000000000000000000000000000000FC
:1020E40000000000000000000000000000000000EC
:1020F40000000000000000000000000000000000DC
:1021040000000000000000000000000000000000CB
:1021140000000000000000000000000000000000BB
:1021240000000000000000000000000000000000AB
:10213400000000000000000000000000000000009B
:1021440001000000000000000E33CDAB34126DE638
:10215400ECDE05000B0000000000000000000000A1
:10216400000000000000000000000000000000006B
:10217400000000000000000000000000000000005B
:10218400000000000000000000000000000000004B
:10219400000000000000000000000000000000003B
:1024C4000500000000127A00010000000400000072
:040000050800091DC9
:00000001FF
