:020000040800F2
:1000000000100020F1070008CD070008CF07000806
:1000100000000000000000000000000000000000E0
:10002000000000000000000000000000D1070008F0
:100030000000000000000000D3070008D5070008FA
:1000400041080008000000004108000841080008BD
:10005000410800084108000841080008410800085C
:10006000000000004108000841080008410800089D
:10007000410800084108000841080008000000008D
:1000800041080008000000000000000041080008CE
:10009000000000004108000841080008410800086D
:1000A000000000004108000800000000DD07000813
:1000B0000000000000000000000000000000000040
:1000C0000448054B10B5834203D0044B002B00D0ED
:1000D000984710BD3C0400203C04002000000000B4
:1000E00006480749091A8B10C90FC91810B54910DD
:1000F00003D0044B002B00D0984710BD3C040020D7
:100100003C0400200000000010B5074C2378002BB1
:1001100009D1FFF7D5FF054B002B02D0044800E0C2
:1001200000BF0123237010BD400400200000000028
:10013000F8230008054B10B5002B03D004490548EF
:1001400000E000BFFFF7CCFF10BDC046000000007C
:1001500044040020F8230008002243088B4274D393
:1001600003098B425FD3030A8B4244D3030B8B42B8
:1001700028D3030C8B420DD3FF22090212BA030CC1
:100180008B4202D31212090265D0030B8B4219D3A2
:1001900000E0090AC30B8B4201D3CB03C01A5241C2
:1001A000830B8B4201D38B03C01A5241430B8B420A
:1001B00001D34B03C01A5241030B8B4201D30B03F3
:1001C000C01A5241C30A8B4201D3CB02C01A52411A
:1001D000830A8B4201D38B02C01A5241430A8B42DD
:1001E00001D34B02C01A5241030A8B4201D30B02C6
:1001F000C01A5241CDD2C3098B4201D3CB01C01AE0
:10020000524183098B4201D38B01C01A52414309E9
:100210008B4201D34B01C01A524103098B4201D3D7
:100220000B01C01A5241C3088B4201D3CB00C01A44
:10023000524183088B4201D38B00C01A52414308BC
:100240008B4201D34B00C01A5241411A00D20146E1
:10025000524110467047FFE701B5002000F006F854
:1002600002BDC0460029F7D076E770477047C04608
:1002700010B5010000230022002000F08BF810BD13
:1002800070B5074D074C641BA41005D0013CA300BA
:10029000EB589847002CF9D102F0B4F870BDC04675
:1002A0005C2400086024000870B50C4D0C4E761BD1
:1002B000B61005D0002408CD01349847A642FAD1E3
:1002C00002F09AF8074D084E761BB61005D00024B0
:1002D00008CD01349847A642FAD170BD54240008D5
:1002E00054240008542400085C240008F0B50500DC
:1002F00083074AD0541E002A44D003000322CEB202
:1003000002E00135013C3DD301332E701342F8D198
:10031000032C2FD9FF220A40150215432A04154346
:100320000F2C35D92700103F3F093E01B4461E006F
:100330001A0010366644156055609560D56010321D
:10034000B242F8D10F260C2201373F012640DB19BB
:100350003700224217D03E1FB608B400A4461A0048
:100360001C1D644420C2A242FCD103240136B60005
:100370009B193C40002C05D0C9B21C1919700133DF
:100380009C42FBD1F0BD3400F4E714000300BFE74A
:100390002700E0E7F0B5C64600B51F4C82B02468E0
:1003A0000194A424019D64002D59002D2BD06C686C
:1003B0001F2C2EDC002809D10020631C0234A4006D
:1003C0006B60615102B004BC9046F0BD8827A60066
:1003D000AE19F2510137FF37BC460122AC446746E3
:1003E000A2403F68904617436246176084277F000B
:1003F000F3510228E0D12B0040468D33FF331A68B9
:1004000010431860D8E7019D019E4D35FF353551E9
:10041000CDE701204042D5E71024000810B582B096
:10042000002301A9064A002B04D001AB1B780370FE
:1004300002B010BD10CA10C10133DBB2F3E7C046F1
:10044000007C000870B586B0027805AB1A7000F029
:1004500013FB00230293124B03930123049301A97E
:1004600002A800F0CFFB041E15D105AE0C4D002CE8
:1004700004D000F019FB012006B070BD32680023E3
:100480002900022000F046FB002806D1043504367E
:100490000134E4B2EBE70020EEE70020ECE7C046D1
:1004A000007C000882B00A4B59698020C0030143D8
:1004B00059615A6902400092009A5A698021890262
:1004C0000A435A615B690B400193019B02B070477C
:1004D0000010024072B6FEE710B50C480C4B0360EA
:1004E00096239B01436000238360C36003610C2259
:1004F00042618361C361036243620022002101F013
:1005000027FF002800D110BDFFF7E4FFA40400205E
:100510000038014000B591B01C22002109A8FFF766
:10052000E5FE2022002101A8FFF7E0FE2148224B32
:1005300003601823436000238360204AC260036184
:100540004361836101F032F900282BD1194801F091
:1005500059F9002828D160230993E023FF330A9337
:1005600000230B930C930D930E930F93002209A974
:10057000104801F0B3F9002818D100230193029329
:10058000039304930593802292010692089301A994
:10059000084801F01BFA00280AD1064800F0ACF820
:1005A00011B000BDFFF796FFFFF794FFFFF792FF32
:1005B000FFF790FF5C04002000480140FF18000096
:1005C00000B595B02C22002109A8FFF78FFE10225C
:1005D000002104A8FFF78AFE102200216846FFF7D9
:1005E00085FE02230893013B0B930F330C9308A85D
:1005F00000F020FC002816D1072304930023059364
:1006000006930793002104A800F09AFE00280CD15D
:100610000123009300230293684600F041FF002865
:1006200005D115B000BDFFF755FFFFF753FFFFF7EA
:1006300051FF000000B583B000F02CF9FFF7C0FFB8
:10064000FFF730FFFFF748FFFFF764FF09E001A85D
:10065000FFF7E4FEFA239B00012201A90E4801F0F6
:100660001FFD6B46991C00230B70FA339B0001227F
:10067000094801F097FD6B46D87003331B78002BB7
:10068000EFD16B4602331B78002BE0D001A803703A
:10069000FFF7D8FEE5E7C046A404002082B00A4B6D
:1006A000996901221143996199690A400092009A5F
:1006B000DA69802149050A43DA61DB690B4001935D
:1006C000019B02B07047C0460010024082B0026831
:1006D000074B9A4201D002B07047064A91698020C8
:1006E000C00201439161936903400193019BF2E7CA
:1006F000004801400010024010B586B004001422EA
:10070000002101A8FFF7F2FD22680F4B9A4201D0A9
:1007100006B010BD0D4A516980208002014351612D
:10072000536903400093009B802301937E3B029317
:1007300000230393049305330593902001A9C0057A
:1007400000F0B2FAE4E7C046004801400010024061
:1007500010B588B004001422002103A8FFF7C6FDDD
:100760002268184B9A4201D008B010BD164B996907
:100770008020C001014399619A6902400192019A67
:100780005A69802189020A435A615B690B400293CE
:10079000029B0E2303930C3B049300230593033326
:1007A0000693023B0793902003A9C00500F07CFA52
:1007B000002200211B2000F08FF81B2000F0BCF865
:1007C000D2E7C0460038014000100240FEE7FEE7D5
:1007D0007047704710B500F06DF810BD10B50248B5
:1007E00001F07AF910BDC046A40400207047000053
:1007F0000D4885460D480E490E4A002302E0D458A4
:10080000C4500433C4188C42F9D30B4A0B4C002358
:1008100001E013600432A242FBD3FFF7E7FFFFF7CA
:1008200043FDFFF707FFFEE7001000200000002057
:100830003C040020602400084004002050050020F3
:10084000FEE7000010B504000F4B1978FA20800075
:10085000FFF782FC01000D4B1868FFF77DFC00F0EC
:1008600077F800280DD1032C01D901200AE00130CE
:1008700000222100404200F02FF8054B1C600020B0
:1008800000E0012010BDC0463404002030040020E8
:100890003804002010B5064A136810210B4313607A
:1008A0000320FFF7CFFFFFF7F9FE002010BDC04681
:1008B00000200240034A1168034B1B785B18136049
:1008C0007047C0462805002034040020014B1868FA
:1008D0007047C0462805002070B5002811DB83084A
:1008E000134EC0339B009D5903242040C000FF22BB
:1008F00014008440A54389010A4082402A439A514A
:1009000070BD0F230340083B9B0806339B00094A38
:10091000944663445C6803221040C000FC3215001A
:100920008540AC4389010A40824022435A60E7E790
:1009300000E100E000ED00E0002805DB1F23184087
:100940001E3B8340014A13607047C04600E100E04F
:10095000013880235B0498420FD2094A506009484D
:10096000036A1B021B0AC02109060B430362002312
:10097000936007331360002070470120FCE7C046F6
:1009800010E000E000ED00E010B52123C35C022B75
:1009900006D0042383631C330022C254012010BDFF
:1009A000026813680E218B43136001680A680123F3
:1009B0009A430A60C26B1900046CA1405160212265
:1009C00083541F330022C2540020E8E710B52123CE
:1009D000C35C022B03D004238363012010BD026893
:1009E00013680E218B43136001680A6801239A4340
:1009F0000A60C26B1900046CA1405160212283542B
:100A00001F330022C254436B002B02D098470020B2
:100A1000E4E70020E2E7000010B5054B0022DA61B0
:100A2000044A1369012423431361018010BDC046A9
:100A300030050020002002400D4BDA6810210B0029
:100A40001340114205D00B4AD3690E390B43D361D1
:100A50001023074AD268520706D50649CA69012001
:100A60000243CA6104221343014AD3607047C0465F
:100A70000020024030050020084B1B691B0609D5E9
:100A8000064B074A5A60074A5A601B691B0603D483
:100A9000002000E0002070470120FCE70020024019
:100AA00023016745AB89EFCD034A136980210B43CE
:100AB000136100207047C0460020024070B504005A
:100AC000FFF704FF0500124BDB68DB070AD5631C48
:100AD000F9D0002C04D0FFF7F9FE401BA042F2D958
:100AE00003200FE00A4BDB689B0602D5084B20224F
:100AF000DA60074BDB68DB0605D4054BDB685B0778
:100B000001D4002070BDFFF797FF0120FAE7C0462F
:100B100000200240F8B5CE46474680B505000E00DD
:100B200090461F00224B1B7E012B3ED0204B012202
:100B30001A762048FFF7C2FF041E2FD1012D07D0DF
:100B4000022D02D0042399461DE0022399461AE0A3
:100B50000123994617E02022D21A390091400A0059
:100B60004146D940114389B28019FFF755FF11481A
:100B7000FFF7A4FF104A136901218B43136100287A
:100B80000CD10134E4B24C4508D26000230120228C
:100B900052429A18DFD43900D140E4E7044B0022D6
:100BA0001A760CBC90469946F8BD0220F9E7C0467B
:100BB0003005002050C3000000200240064B0022F8
:100BC000DA61064B1A6904210A431A611A693C3139
:100BD0000A431A617047C0463005002000200240D9
:100BE000064B0022DA61064B1A6902210A431A6198
:100BF00058611A693E310A431A6170473005002076
:100C00000020024070B505000E00244B1B7E012B16
:100C100041D0224B01221A760368012B22D02048B2
:100C2000FFF74CFF002831D101235B4233606C6831
:100C30000130AB689B026A6894466344A34226D99C
:100C40002000FFF7CDFF1648FFF738FF154A13695C
:100C500002218B431361002816D18023DB009C46C0
:100C60006444E6E70E48FFF729FF002801D0012081
:100C70000DE0FFF7A3FF0A48FFF720FF094A1369B9
:100C800004218B43136102E0346000E00120034B38
:100C900000221A7670BD0220FCE7C0463005002015
:100CA00050C3000000200240F0B583B0002357E09D
:100CB00084685F000326BE40B4432600CC68BC4075
:100CC00034438460446894434A68160901223240E0
:100CD0009A402243426053E0DC080834A4002658BE
:100CE00005321A4092000F279740BE430F69974084
:100CF0003A003243225057E0032600E00026A64087
:100D000034003C4302329200444E9451444A1468E9
:100D1000EA432600AE434F68FF0301D52C4326006B
:100D20003F4C26606468260016404F68BF0301D51B
:100D30002C4326003A4C6660A468260016404F6893
:100D4000FF0201D52C432600354CA660E468224002
:100D50004E68B60201D52A002243314CE2600133CD
:100D60000C682200DA4057D001229A402500154035
:100D70001442F4D003244E683440013C012C97D92E
:100D800003224C682240032A09D0C2685E00032473
:100D9000B440A24314008A68B2402243C2600322D6
:100DA0004C682240022A97D004685E000322170094
:100DB000B740BC434F683A40B24022430260C02271
:100DC00092024C681442CAD0164CA66901221643FE
:100DD000A661A46922400192019A9A08941CA40079
:100DE0000E4EA75903241C40A4000F26A640B7436B
:100DF0009026F605B04281D00B4EB04208D00B4E83
:100E0000B04207D00A4EB04200D175E7052676E71A
:100E1000012674E7022672E703B0F0BD000001402E
:100E2000000401400010024000040048000800488F
:100E3000000C004870B582B0041E00D12EE2036899
:100E4000DB0726D5AE4B5A680C231340042B18D071
:100E5000AB4B5A680C231340082B0ED06368012B50
:100E60003CD0002B51D1A64B1A68A6490A401A6003
:100E70001A68A5490A401A6036E0A14B5B68DB039B
:100E8000ECD59F4B1B689B0303D56368002B00D1F7
:100E900007E223689B0772D5994B5B680C221A42C4
:100EA0005DD0974B5A680C231340082B53D0E3684E
:100EB000002B00D185E0924A136801210B43136097
:100EC000FFF704FD05008E4B1B689B0770D4FFF7EE
:100ED000FDFC401B0228F6D90320E0E1884A116896
:100EE00080235B020B4313606368002B25D0FFF760
:100EF000EDFC0500824B1B689B03CAD4FFF7E6FCA0
:100F0000401B6428F6D90320C9E1052B09D07C4B8E
:100F10001A687C490A401A601A687B490A401A60BC
:100F2000E2E7774B19688022D2020A431A601968F7
:100F3000802252020A431A60D6E7FFF7C7FC050079
:100F40006F4B1B689B03A4D5FFF7C0FC401B6428B4
:100F5000F6D90320A3E16A4B5B68DB03A7D4684B97
:100F60001B689B0703D5E368012B00D09BE1644914
:100F70000B68F82293432269D20013430B60236865
:100F80001B0744D5E369002B2ED05D4A536A01212B
:100F90000B435362FFF79AFC0500594B5B6A9B07B2
:100FA00035D4FFF793FC401B0228F6D9032076E1E5
:100FB00053490B68F82293432269D20013430B6014
:100FC000DDE74F4A136801218B431360FFF77EFC76
:100FD00005004B4B1B689B07D1D5FFF777FC401BE7
:100FE0000228F6D903205AE1454A536A01218B436E
:100FF0005362FFF76BFC0500414B5B6A9B0706D50C
:10100000FFF764FC401B0228F6D9032047E1236860
:101010005B0700D480E03A4BDB69DB000BD4384A35
:10102000D169802040050143D161D3690340019318
:10103000019B012500E00025344B1B68DB050ED524
:10104000A368012B1FD0002B34D12D4B1A6A01212C
:101050008A431A621A6A03318A431A6218E02B4AD9
:10106000116880235B000B431360FFF72FFC060021
:10107000264B1B68DB05E3D4FFF728FC801B6428A4
:10108000F6D903200BE11E4A136A01210B431362B8
:10109000A368002B24D0FFF719FC0600184B1B6A2D
:1010A0009B0737D4FFF712FC801B194B9842F5D9E8
:1010B0000320F4E0052B09D0114B1A6A01218A4361
:1010C0001A621A6A03318A431A62E1E70C4B1A6A00
:1010D00004210A431A621A6A03390A431A62D7E7DB
:1010E000FFF7F4FB0600064B1B6A9B0712D5FFF7C0
:1010F000EDFB801B064B9842F5D90320CFE0C0469C
:1011000000100240FFFFFEFFFFFFFBFF00700040EA
:1011100088130000012D33D02368DB0610D56369E6
:10112000012B33D0053351D1654A536B04218B43D6
:101130005363536BF4318B43A169C9000B43536371
:10114000236A002B00D1B0E05D4A51680C220A40AE
:10115000082A00D18AE0022B4FD0594A1368594916
:101160000B401360FFF7B2FB0400554B1B689B015B
:101170007AD5FFF7ABFB001B0228F6D903208EE0DF
:101180004F4AD36950490B40D361C5E74C4B5A6B6A
:1011900004210A435A635A6B03390A435A63FFF71F
:1011A00095FB0500464B5B6B9B0706D4FFF78EFB58
:1011B000401B0228F6D9032071E041494B6BF8220D
:1011C0009343A269D20013434B63B9E73C4B5A6B7C
:1011D00004210A435A635A6B03398A435A63FFF75F
:1011E00075FB0500364B5B6B9B07A9D5FFF76EFBC4
:1011F000401B0228F6D9032051E0314A13683149D7
:101200000B401360FFF762FB05002D4B1B689B0131
:1012100006D5FFF75BFB401B0228F6D903203EE012
:10122000274BDA6A0F218A43E16A0A43DA625A6875
:1012300026490A40A16A606A01430A435A60196854
:10124000802252040A431A60FFF740FB04001C4B43
:101250001B689B0106D4FFF739FB001B0228F6D957
:1012600003201CE000201AE0002018E0012B1ED013
:10127000134B5A68D96A80235B021340606A834229
:1012800017D10F230B40E16A8B4214D1F0239B034B
:101290001A40A36A9A4210D1002000E0012002B057
:1012A00070BD0120FBE70120F9E70020F7E70120EE
:1012B000F5E70120F3E70120F1E70120EFE7C04661
:1012C00000100240FFFFFFFEFFFFFFEFFFFFC2FF26
:1012D00010B588B004AA164B13CB13C21B68136059
:1012E0006A46144B13CB13C21B681360124B5A6827
:1012F0000C231340082B02D0104808B010BD910CED
:101300000733194004A8445C0B49C96A0B4069467D
:10131000C95CD30304D50948FEF71EFF6043ECE720
:1013200063011B1B9801C01AC00000190002E4E70A
:101330002C240008402400080010024000127A000B
:1013400070B504000D00002800D17EE0434B1A6800
:10135000012313408B420AD240490B680122934378
:101360002B430B600B681A40AA4200D06FE0236841
:101370009A070ED55B0705D5394A5168E023DB0093
:101380000B435360364A5368F0218B43A1680B43EB
:1013900053602368DB072DD56368012B1ED0022B19
:1013A00022D02F4A1268920753D52D494A6803204C
:1013B000824313434B60FFF789FA0600284B5B68B2
:1013C0000C221A4063689B009A4213D0FFF77EFA02
:1013D000801B244B9842F1D9032035E0204A126843
:1013E0009203E2D401202FE01D4A12689201DCD45E
:1013F000012029E0194B1A6801231340AB4209D997
:1014000016490B68012293432B430B600B681A406B
:10141000AA4220D123685B0706D5114A53681249B6
:101420000B40E1680B435360FFF752FF0C4B5A68C7
:1014300012090F2313400D4AD35CD8400C4B18609F
:101440000320FFF7FFF9002070BD0120FCE7012019
:10145000FAE70120F8E70120F6E7C0460020024045
:101460000010024088130000FFF8FFFF142400085A
:1014700030040020014B18687047C046300400203B
:1014800010B5FFF7F7FF044B5A68120A0723134001
:10149000024AD35CD84010BD00100240242400084A
:1014A00070B582B004000368DB0337D53D4BDB69C0
:1014B000DB0049D43B4AD169802040050143D1611A
:1014C000D36903400193019B0125374B1B68DB0562
:1014D0003CD5344B1A6AC0239B00110019401A42B4
:1014E00013D0626813408B420FD02E4B186A2F4ADC
:1014F00002401E6A8021490231431962196A2C4E4A
:10150000314019621A62C30734D4264A136A274944
:101510000B4061680B431362012D3AD02368DB074F
:1015200006D5204A136B03218B43A1680B43136339
:1015300023689B0632D51B4A136B10218B43E1684D
:101540000B43136300202AE00025BEE7164A11680A
:1015500080235B000B431360FFF7B8F90600124BC2
:101560001B68DB05B5D4FFF7B1F9801B6428F6D9F9
:10157000032014E0FFF7AAF906000A4B1B6A9B0739
:10158000C3D4FFF7A3F9801B0A4B9842F5D9032077
:1015900005E0D36908490B40D361BFE7002002B0E2
:1015A00070BDC0460010024000700040FFFCFFFF0D
:1015B000FFFFFEFF88130000FFFFFFEF30B5036A57
:1015C000012293430362036A426884697325AC4332
:1015D0000D682C430225AB438D682B43114DA84267
:1015E00005D0114DA84202D0104DA84205D10825C2
:1015F000AB43CD682B430425AB430A4DA84205D02D
:10160000094DA84202D0094DA84205D1084D2A40F3
:101610004D692A438D692A43426084614A68426366
:10162000036230BD002C01400044014000480140ED
:10163000FFFCFFFF70B5036A184A13400362036A98
:101640004468C2697325AA430E681643144A1340BE
:101650008A6812021343134A904216D0114A9042EC
:1016600005D0114A904202D0104A904207D1104A48
:1016700022404C69240114438A6915012C434460BB
:10168000C6614A68C263036270BD0A4A1A40CB68E9
:101690001B021343084A1340E0E7C046FFFEFFFF6A
:1016A000FFFDFFFF002C01400044014000480140C5
:1016B000FFCFFFFFFFF7FFFFFFFBFFFF30B5036A20
:1016C000114A13400362036A4568C2690F4C224005
:1016D0000C68240222430E4C1C408B681B032343DE
:1016E0000C4CA04205D00C4CA04202D00B4CA042A6
:1016F00004D10B4C25404C69A40125434560C261CF
:101700004A680264036230BDFFEFFFFFFF8CFFFFFA
:10171000FFDFFFFF002C0140004401400048014072
:10172000FFBFFFFF7047000003681A4A904202D0D3
:10173000194A904203D1702293434A681343154AD1
:1017400090420BD0144A904208D0144A904205D0DF
:10175000134A904202D0134A904203D1124A1340D6
:10176000CA681343802293434A69134303608B681A
:10177000C3620B688362074B984205D0084B9842BE
:1017800002D0084B984201D10B69036301234361E6
:101790007047C046002C014000040040002000407B
:1017A0000044014000480140FFFCFFFF70B5041EEB
:1017B00026D03D23C35C002B1CD03D25022363555E
:1017C000210001C9FFF7B0FF01234622A354083AC4
:1017D000A3540132A3540132A3540132A354013261
:1017E000A3540132A3540132A3540132A3546355CC
:1017F000002070BD3C330022C254FEF767FFDCE7D7
:101800000120F6E770B5041E26D03D23C35C002BF3
:101810001CD03D2502236355210001C9FFF784FF39
:1018200001234622A354083AA3540132A35401329F
:10183000A3540132A3540132A3540132A354013200
:10184000A3540132A3546355002070BD3C330022E1
:10185000C254FFF767FFDCE70120F6E730B5036A03
:10186000102293430362036A45688469164A144050
:101870000A6812021443202293438A681201134318
:10188000124A904216D0114A904205D0104A904216
:1018900002D0104A904207D10F4A2A404D69AD004C
:1018A00015438A6992001543456084614A688263E2
:1018B000036230BD802293431A00CB681B0113439F
:1018C00040229343DFE7C046FF8CFFFF002C01401E
:1018D0000044014000480140FFF3FFFF70B50400E1
:1018E0000D003C23C35C012B00D16AE03C230121A5
:1018F000C154082A50D01CD8002A38D0042A16D146
:1019000029000068FFF7AAFF2268916980231B0164
:101910000B439361226893692B490B4093612168C3
:101920008B692A69120213438B6100201BE00800B7
:1019300019E00C2A16D129000068FFF7BFFE2268C3
:10194000D16980231B010B43D3612268D3691E49EF
:101950000B40D3612168CB692A6912021343CB6122
:10196000002000E001203C230022E25470BD290049
:101970000068FFF723FE2268936908210B439361F7
:101980002268936904398B439361226893692969BA
:101990000B4393610020E6E729000068FFF74AFE49
:1019A0002268D36908210B43D3612268D3690439C3
:1019B0008B43D3612268D36929690B43D36100202B
:1019C000D1E70220D2E7C046FFFBFFFF10B53C2362
:1019D000C35C012B21D03C2201238354104BCC68E3
:1019E00023408C6823430F4C23404C6823430E4C08
:1019F00023400C6823430D4C23400C6923430C4CBB
:101A000023404C6923430B4C2340C9690B430168B5
:101A10004B6400238354002010BD0220FCE7C04625
:101A2000FFFCFFFFFFFBFFFFFFF7FFFFFFEFFFFFE5
:101A3000FFDFFFFFFFBFFFFF30B5EFF31084012290
:101A400082F3108801680B68114D2B400B6084F302
:101A50001088EFF3108482F3108801688B68934339
:101A60008B6084F31088036E012B05D02023C3679D
:101A700000230366436630BDEFF3108183F31088C3
:101A8000026813681024A343136081F31088EDE704
:101A9000DFFEFFFF704710B5EFF31081012383F3E2
:101AA0001088026813684024A343136081F31088F0
:101AB0002023836700238366FFF7ECFF10BD704788
:101AC00010B5406A00235A228352083A8352FFF726
:101AD000F6FF10BD7047000070B504000268D369BE
:101AE00010689668A4491D000D400B4203D1990669
:101AF00001D5810618D4002D07D001210D003540F5
:101B0000314217D19D49084214D1216E012900D1DB
:101B100093E01A0602D5020600D522E15B0602D543
:101B2000430600D524E170BD636E002BFBD020007E
:101B30009847F8E7D90707D5C10505D501261662EC
:101B400080216258324362509A0709D5002D07D090
:101B50002268022111627E316258042632436250AB
:101B60005A0709D5002D07D02268042111627C3163
:101B700062580226324362501A070AD5820601D4FF
:101B8000002D06D0226808251562802162582A435C
:101B900062501A050AD5420108D522688021090140
:101BA00011628021625820252A4362508022A25867
:101BB000002AB8D09B0606D5830604D5636E002B99
:101BC00001D0200098478023E25823689B685B0679
:101BD00002D42823134229D02000FFF72DFF2368C9
:101BE0009B685B061ED5EFF31081012383F31088F9
:101BF0002268936840208343936081F31088236FA9
:101C0000002B0BD05E4A5A63206FFEF7DFFE0028E0
:101C100000D188E7206F436B984784E72000FFF7E7
:101C20004EFF80E72000FFF74AFF7CE72000FFF728
:101C300046FF80230022E25075E7D90600D468E70A
:101C4000C10600D465E71023136223689B685B0616
:101C50004FD5226F13685B689BB2002B00D162E7FF
:101C60005821615A994200D85DE75A21635293691D
:101C7000202B09D15823E15A0233E35AC91A89B2F9
:101C80002000FFF727FF4EE7EFF31080012383F3D7
:101C9000108821680A683B4D2A400A6080F310884A
:101CA000EFF3108083F3108821688A689A438A6072
:101CB00080F31088EFF3108083F3108821688A681E
:101CC0004235FF35AA438A6080F310882022E267FC
:101CD00000222266EFF3108183F3108822681368D4
:101CE00010208343136081F31088206FFEF74CFEB1
:101CF000C0E75823E15A0233E25A891A89B2E35AFB
:101D00009BB2002B00D10EE7002900D10BE7EFF3C7
:101D10001085012383F31088206802681A4E324030
:101D2000026085F31088EFF3108583F31088206834
:101D300082689A43826085F310882022E26700223D
:101D400022666266EFF3108083F3108822681368BE
:101D50001025AB43136080F310882000FFF7BAFE14
:101D6000E1E6A36E002B00D1DDE620009847DAE61D
:101D70002000FFF790FED6E60F08000020010004C7
:101D8000C11A0008FFFEFFFFDFFEFFFF10B50400D1
:101D900083680269134342691343C26913430168AC
:101DA0000A684A48024013430B6022685368484956
:101DB0000B40E1680B435360226AA3691A43216810
:101DC0008B684448034013438B60434B1A6B0323D7
:101DD0001340022B27D022D8002B26D0012B26D14E
:101DE0000333E06980221202904224D0042B65D094
:101DF00054D8002B5CD0022B4ED1384863685B0866
:101E000018186168FEF7A8F90004000C0200103AE7
:101E1000334B9A4257D82368D860002044E0032B04
:101E200007D1013BDDE70823DBE70023D9E71023D7
:101E3000D7E71023D5E7042B2BD020D8002B22D0B6
:101E4000022B1AD12548400063685B08C0186168FE
:101E5000FEF782F983B20004000C01001039204A19
:101E600091422ED80F2293431A00400807231840AE
:101E700010432368D860002016E0012014E0082BEE
:101E8000E1D0012010E0FFF7FBFA0028DBD10020B1
:101E90000AE0FFF71DFAF8E7012005E0082B02D160
:101EA00080200002AAE7012000236366A36610BD1C
:101EB000FFF7E6FA0028A1D10020F5E7FFF708FABE
:101EC000F8E70120F0E70120EEE7C046F369FFFFE5
:101ED000FFCFFFFFFFF4FFFF0010024000127A0067
:101EE000EFFF0000436ADB0706D5026853682C4900
:101EF0000B40816A0B435360436A9B0706D5026817
:101F0000536828490B40C16A0B435360436A5B071F
:101F100006D50268536824490B40016B0B4353609C
:101F2000436A1B0706D50268536820490B40416B82
:101F30000B435360436ADB0606D5026893681C496D
:101F40000B40816B0B439360436A9B0606D5026886
:101F5000936818490B40C16B0B439360436A5B065F
:101F60000BD50268536814490B40016C0B43536056
:101F700080235B03026C9A420AD0436A1B0606D593
:101F8000026853680D490B40816C0B4353607047E6
:101F9000026853680A490B40416C0B435360ECE7FD
:101FA000FFFFFDFFFFFFFEFFFFFFFBFFFF7FFFFFC8
:101FB000FFEFFFFFFFDFFFFFFFFFEFFFFFFFF7FF79
:101FC000FFFF9FFFF8B5CE46474680B506000D00DF
:101FD00017009946089B98463368DC692C40641BBF
:101FE00063425C41BC4253D143460133F4D0FEF717
:101FF0006DFC4B46C01A40452CD84346002B29D0D7
:1020000033681A685207E7D5DA691205E4D58022E9
:1020100012011A62EFF31080012282F310883168F6
:102020000B681E4C23400B6080F31088EFF3108088
:1020300082F3108831688B6893438B6080F310883B
:102040002023B367F3677F32B35054330022F25436
:1020500003201EE0EFF31080012282F31088316824
:102060000B680E4C23400B6080F31088EFF3108058
:1020700082F3108831688B6893438B6080F31088FB
:102080002023B367F36754330022F254032000E0A7
:1020900000200CBC90469946F8BDC0465FFEFFFF8D
:1020A000F0B5C64600B582B004000D0090461E0093
:1020B000836F202B66D1002969D0002A69D0802344
:1020C0005B0182689A421ED07423E35C012B62D0CC
:1020D00074230122E2540C330022E2505F3BA367D9
:1020E000FEF7F4FB070050234246E2520233E2526D
:1020F00080235B01A2689A420CD000239846742387
:102100000022E2541DE00369002BDDD1CB07DBD5B3
:10211000012038E02369002B02D000239846EEE727
:10212000A8460025EBE743461B88DB05DB0D22684C
:10213000138502239C46E0445223E25A013A92B2AC
:10214000E2525223E35A9BB2002B0FD000963B0081
:10215000002280212000FFF735FF00281DD1002D2F
:10216000E1D02B78226813850135E5E700963B0026
:10217000002240212000FFF725FF00280FD1202357
:10218000A36700E0022002B004BC9046F0BD01202D
:10219000F9E70120F7E70220F5E70320F3E7032042
:1021A000F1E70000F0B5C64600B584B004000E00AB
:1021B00015001F00C36F202B00D081E0002900D143
:1021C00083E0002A00D182E080235B0182689A428A
:1021D00022D07423E35C012B00D17AE07423012226
:1021E000E25400237F32A3505E3AE2672366FEF793
:1021F0006DFB80465823E5520233E552A3688022E6
:10220000520193420FD0002B1CD12269002A15D114
:102210005C32FF21A15218E00369002BD9D1CB0712
:10222000D7D501204DE02269002A03D15C322B4929
:10223000A1520AE05C22FF21A15206E05C227F212C
:10224000A15202E05C220021A1525C22A25A039218
:1022500080225201934204D0002574230022E254CC
:1022600012E02369002B01D00025F6E73500002697
:10227000F3E723689B8C039A13402B8002355A2383
:10228000E25A013A92B2E2525A23E35A9BB2002B2D
:1022900012D000974346002220212000FFF792FE33
:1022A000002818D1002EE4D023689B8C6A46127B4C
:1022B000134033700136E2E72033E367002000E08B
:1022C000022004B004BC9046F0BD0120F9E70120D3
:1022D000F7E70220F5E70320F3E7C046FF0100001F
:1022E00030B583B0040080230022C250FEF7EEFA1E
:1022F000050023681B681B070DD423681B685B0758
:1023000016D42023A367E367002323667422A35413
:10231000002003B030BD80210C4B0093030000224D
:1023200089032000FFF74EFE0028E6D00320F0E7E7
:102330008021064B00932B000022C9032000FFF7E9
:1023400041FE0028DDD00320E3E7C046FFFFFF0188
:10235000F8B504000F0016001D00002839D0836F67
:10236000002B2CD02423A3672268136801218B4300
:1023700013602000FFF70AFD01281FD0636A002BBD
:1023800023D1226891688023DB010B43936023688B
:102390009968114A11400F439F6076052D042E4322
:1023A00023681D680D4A15402E431E60226813687D
:1023B00001210B4313602000FFF792FFF8BD743337
:1023C0000022C254FEF7C4F9CCE72000FFF78AFDD3
:1023D000D7E70120F2E7C046FF7FFFFFFFFF00FCC9
:1023E000034B10B5002B02D00248FDF741FF10BD92
:1023F0000000000081020008F8B5C046F8BC08BC27
:102400009E467047F8B5C046F8BC08BC9E4670476B
:10241000080000200000000000000000010203048A
:102420000607080900000000010203040203040576
:10243000060708090A0B0C0D0E0F10100000000013
:102440000102030405060708090A0B0C0D0E0F1004
:042450000000000088
:08245400E12300083501000836
:04245C00090100086A
:10246000080000200000000000000000F40200202E
:102470005C030020C40300200000000000000000F6
:10248000000000000000000000000000000000004C
:10249000000000000000000000000000000000003C
:1024A000000000000000000000000000000000002C
:1024B000000000000000000000000000000000001C
:1024C000000000000000000000000000000000000C
:1024D00000000000000000000000000000000000FC
:1024E00000000000000000000000000000000000EC
:1024F00000000000000000000000000000000000DC
:1025000000000000000000000000000000000000CB
:1025100001000000000000000E33CDAB34126DE668
:10252000ECDE05000B0000000000000000000000D1
:10253000000000000000000000000000000000009B
:10254000000000000000000000000000000000008B
:10255000000000000000000000000000000000007B
:10256000000000000000000000000000000000006B
:0C28900000127A000100000004000000AB
:04000005080007F1F7
:00000001FF
